{
  "address": "0x2BB8B93F585B43b06F3d523bf30C203d3B6d4BD4",
  "abi": [
    {
      "inputs": [],
      "stateMutability": "nonpayable",
      "type": "constructor"
    },
    {
      "inputs": [
        {
          "internalType": "bytes32",
          "name": "",
          "type": "bytes32"
        }
      ],
      "name": "Coins",
      "outputs": [
        {
          "internalType": "bytes32",
          "name": "ticker",
          "type": "bytes32"
        },
        {
          "internalType": "contract IERC20",
          "name": "token",
          "type": "address"
        }
      ],
      "stateMutability": "view",
      "type": "function"
    },
    {
      "inputs": [
        {
          "internalType": "uint256",
          "name": "_usdcAmount",
          "type": "uint256"
        },
        {
          "internalType": "uint256",
          "name": "_usdtAmount",
          "type": "uint256"
        },
        {
          "internalType": "uint256",
          "name": "_daiAmount",
          "type": "uint256"
        }
      ],
      "name": "depositStablecoins",
      "outputs": [],
      "stateMutability": "nonpayable",
      "type": "function"
    }
  ],
  "transactionHash": "0x04ca309858522e02e5c6e08f6eceb3222be1a38f7a937c0dabed410c26e0e5fc",
  "args": [],
  "solcInputHash": "7fe7a3560030fd9bef7ac0621a8e297c",
  "bytecode": "0x608060405234801561001057600080fd5b50604080518082018252637573646360e01b808252732791bca1f2de4661ed88a30c99a7a9449aa8417460208084019182526000928352600180825293517fba9dae59fd26a207dddfac5c488b0b296c014d0998b3de0b748702e2f4a8ceb75590517fba9dae59fd26a207dddfac5c488b0b296c014d0998b3de0b748702e2f4a8ceb880546001600160a01b039283166001600160a01b03199182161790915585518087018752631d5cd91d60e21b80825273c2132d05d31c914a87c6611c10748aeb04b58e8f82860190815290865286855290517f4c7c230e479d0efcb4289d42735462eb42b63c4c0768ff7955b513f7e10921c055517f4c7c230e479d0efcb4289d42735462eb42b63c4c0768ff7955b513f7e10921c18054918416918316919091179055855180870187526264616960e81b808252738f3cf7ad23cd3cadbd9735aff958023239c6a06382860181815291875287865291517f8381c33be0829de2f8429f3f2e7870db92965facbb6fc5279950edcd3cbef10c55517f8381c33be0829de2f8429f3f2e7870db92965facbb6fc5279950edcd3cbef10d805491851691841691909117905586518088019097526530ba37b5b2b760d11b80885287850191825285529490925293517f676cd9aed1b54d37847592d0b8f67c3db4f18a698070ffd36b32d34a9b7c577d5591517f676cd9aed1b54d37847592d0b8f67c3db4f18a698070ffd36b32d34a9b7c577e80549190941690831617909255815416738dff5e27ea6b7ac08ebfdf9eb090f32ee9a30fcf179055610de88061025c6000396000f3fe608060405234801561001057600080fd5b50600436106100365760003560e01c8063b823154d1461003b578063cd44c37114610050575b600080fd5b61004e610049366004610a96565b61007a565b005b61006361005e366004610a66565b610719565b604051610071929190610b7d565b60405180910390f35b637573646360e01b60005260016020527fba9dae59fd26a207dddfac5c488b0b296c014d0998b3de0b748702e2f4a8ceb8546040516370a0823160e01b815284916001600160a01b0316906370a08231906100d9903090600401610b09565b60206040518083038186803b1580156100f157600080fd5b505afa158015610105573d6000803e3d6000fd5b505050506040513d601f19601f820116820180604052508101906101299190610a7e565b10156101505760405162461bcd60e51b815260040161014790610c92565b60405180910390fd5b631d5cd91d60e21b60005260016020527f4c7c230e479d0efcb4289d42735462eb42b63c4c0768ff7955b513f7e10921c1546040516370a0823160e01b815283916001600160a01b0316906370a08231906101af903090600401610b09565b60206040518083038186803b1580156101c757600080fd5b505afa1580156101db573d6000803e3d6000fd5b505050506040513d601f19601f820116820180604052508101906101ff9190610a7e565b101561021d5760405162461bcd60e51b815260040161014790610ba7565b6264616960e81b60005260016020527f8381c33be0829de2f8429f3f2e7870db92965facbb6fc5279950edcd3cbef10d546040516370a0823160e01b815282916001600160a01b0316906370a082319061027b903090600401610b09565b60206040518083038186803b15801561029357600080fd5b505afa1580156102a7573d6000803e3d6000fd5b505050506040513d601f19601f820116820180604052508101906102cb9190610a7e565b10156102e95760405162461bcd60e51b815260040161014790610c24565b6530ba37b5b2b760d11b60005260016020527f676cd9aed1b54d37847592d0b8f67c3db4f18a698070ffd36b32d34a9b7c577e546040516370a0823160e01b81526103c0916001600160a01b0316906370a082319061034c903090600401610b09565b60206040518083038186803b15801561036457600080fd5b505afa158015610378573d6000803e3d6000fd5b505050506040513d601f19601f8201168201806040525081019061039c9190610a7e565b604051806040016040528060068152602001654265666f726560d01b81525061073b565b637573646360e01b60005260016020527fba9dae59fd26a207dddfac5c488b0b296c014d0998b3de0b748702e2f4a8ceb85461041a906001600160a01b0316738dff5e27ea6b7ac08ebfdf9eb090f32ee9a30fcf85610784565b631d5cd91d60e21b60005260016020527f4c7c230e479d0efcb4289d42735462eb42b63c4c0768ff7955b513f7e10921c154610474906001600160a01b0316738dff5e27ea6b7ac08ebfdf9eb090f32ee9a30fcf84610784565b6264616960e81b60005260016020527f8381c33be0829de2f8429f3f2e7870db92965facbb6fc5279950edcd3cbef10d546104cd906001600160a01b0316738dff5e27ea6b7ac08ebfdf9eb090f32ee9a30fcf83610784565b6000805460405163e8eda9df60e01b81526001600160a01b039091169163e8eda9df9161051691732791bca1f2de4661ed88a30c99a7a9449aa841749188913391600401610b50565b600060405180830381600087803b15801561053057600080fd5b505af1158015610544573d6000803e3d6000fd5b50506000805460405163e8eda9df60e01b81526001600160a01b03909116935063e8eda9df92506105919173c2132d05d31c914a87c6611c10748aeb04b58e8f9187913391600401610b50565b600060405180830381600087803b1580156105ab57600080fd5b505af11580156105bf573d6000803e3d6000fd5b50506000805460405163e8eda9df60e01b81526001600160a01b03909116935063e8eda9df925061060c91738f3cf7ad23cd3cadbd9735aff958023239c6a0639186913391600401610b50565b600060405180830381600087803b15801561062657600080fd5b505af115801561063a573d6000803e3d6000fd5b50506530ba37b5b2b760d11b600052505060016020527f676cd9aed1b54d37847592d0b8f67c3db4f18a698070ffd36b32d34a9b7c577e546040516370a0823160e01b8152610714916001600160a01b0316906370a08231906106a1903090600401610b09565b60206040518083038186803b1580156106b957600080fd5b505afa1580156106cd573d6000803e3d6000fd5b505050506040513d601f19601f820116820180604052508101906106f19190610a7e565b6040518060400160405280600581526020016420b33a32b960d91b81525061073b565b505050565b600160208190526000918252604090912080549101546001600160a01b031682565b6107808282604051602401610751929190610d69565b60408051601f198184030181529190526020810180516001600160e01b0316630fa3f34560e01b17905261087e565b5050565b80158061080c5750604051636eb1769f60e11b81526001600160a01b0384169063dd62ed3e906107ba9030908690600401610b1d565b60206040518083038186803b1580156107d257600080fd5b505afa1580156107e6573d6000803e3d6000fd5b505050506040513d601f19601f8201168201806040525081019061080a9190610a7e565b155b6108285760405162461bcd60e51b815260040161014790610d13565b6107148363095ea7b360e01b8484604051602401610847929190610b37565b60408051601f198184030181529190526020810180516001600160e01b03166001600160e01b03199093169290921790915261089f565b80516a636f6e736f6c652e6c6f67602083016000808483855afa5050505050565b60006108f4826040518060400160405280602081526020017f5361666545524332303a206c6f772d6c6576656c2063616c6c206661696c6564815250856001600160a01b031661092e9092919063ffffffff16565b80519091501561071457808060200190518101906109129190610a46565b6107145760405162461bcd60e51b815260040161014790610cc9565b606061093d8484600085610947565b90505b9392505050565b6060824710156109695760405162461bcd60e51b815260040161014790610bde565b61097285610a07565b61098e5760405162461bcd60e51b815260040161014790610c5b565b600080866001600160a01b031685876040516109aa9190610aed565b60006040518083038185875af1925050503d80600081146109e7576040519150601f19603f3d011682016040523d82523d6000602084013e6109ec565b606091505b50915091506109fc828286610a0d565b979650505050505050565b3b151590565b60608315610a1c575081610940565b825115610a2c5782518084602001fd5b8160405162461bcd60e51b81526004016101479190610b94565b600060208284031215610a57578081fd5b81518015158114610940578182fd5b600060208284031215610a77578081fd5b5035919050565b600060208284031215610a8f578081fd5b5051919050565b600080600060608486031215610aaa578182fd5b505081359360208301359350604090920135919050565b60008151808452610ad9816020860160208601610d82565b601f01601f19169290920160200192915050565b60008251610aff818460208701610d82565b9190910192915050565b6001600160a01b0391909116815260200190565b6001600160a01b0392831681529116602082015260400190565b6001600160a01b03929092168252602082015260400190565b6001600160a01b03948516815260208101939093529216604082015261ffff909116606082015260800190565b9182526001600160a01b0316602082015260400190565b6000602082526109406020830184610ac1565b6020808252601f908201527f496e737566666963656e742062616c616e6365206f6620746865205553445400604082015260600190565b60208082526026908201527f416464726573733a20696e73756666696369656e742062616c616e636520666f6040820152651c8818d85b1b60d21b606082015260800190565b6020808252601e908201527f496e737566666963656e742062616c616e6365206f6620746865204441490000604082015260600190565b6020808252601d908201527f416464726573733a2063616c6c20746f206e6f6e2d636f6e7472616374000000604082015260600190565b6020808252601f908201527f496e737566666963656e742062616c616e6365206f6620746865205553444300604082015260600190565b6020808252602a908201527f5361666545524332303a204552433230206f7065726174696f6e20646964206e6040820152691bdd081cdd58d8d9595960b21b606082015260800190565b60208082526036908201527f5361666545524332303a20617070726f76652066726f6d206e6f6e2d7a65726f60408201527520746f206e6f6e2d7a65726f20616c6c6f77616e636560501b606082015260800190565b60008382526040602083015261093d6040830184610ac1565b60005b83811015610d9d578181015183820152602001610d85565b83811115610dac576000848401525b5050505056fea26469706673582212205b0249baa628361bd74b3222146004db259facc21423a32f2054c2c4ded7274564736f6c63430008000033",
  "devdoc": {
    "kind": "dev",
    "methods": {},
    "version": 1
  },
  "userdoc": {
    "kind": "user",
    "methods": {},
    "version": 1
  },
  "storageLayout": {
    "storage": [
      {
        "astId": 1215,
        "contract": "contracts/Strategy.sol:Strategy",
        "label": "aaveProtocol",
        "offset": 0,
        "slot": "0",
        "type": "t_contract(IAaveLendingPool)1707"
      },
      {
        "astId": 1230,
        "contract": "contracts/Strategy.sol:Strategy",
        "label": "Coins",
        "offset": 0,
        "slot": "1",
        "type": "t_mapping(t_bytes32,t_struct(Token)1225_storage)"
      }
    ],
    "types": {
      "t_bytes32": {
        "encoding": "inplace",
        "label": "bytes32",
        "numberOfBytes": "32"
      },
      "t_contract(IAaveLendingPool)1707": {
        "encoding": "inplace",
        "label": "contract IAaveLendingPool",
        "numberOfBytes": "20"
      },
      "t_contract(IERC20)584": {
        "encoding": "inplace",
        "label": "contract IERC20",
        "numberOfBytes": "20"
      },
      "t_mapping(t_bytes32,t_struct(Token)1225_storage)": {
        "encoding": "mapping",
        "key": "t_bytes32",
        "label": "mapping(bytes32 => struct Strategy.Token)",
        "numberOfBytes": "32",
        "value": "t_struct(Token)1225_storage"
      },
      "t_struct(Token)1225_storage": {
        "encoding": "inplace",
        "label": "struct Strategy.Token",
        "members": [
          {
            "astId": 1221,
            "contract": "contracts/Strategy.sol:Strategy",
            "label": "ticker",
            "offset": 0,
            "slot": "0",
            "type": "t_bytes32"
          },
          {
            "astId": 1224,
            "contract": "contracts/Strategy.sol:Strategy",
            "label": "token",
            "offset": 0,
            "slot": "1",
            "type": "t_contract(IERC20)584"
          }
        ],
        "numberOfBytes": "64"
      }
    }
  }
}