{
  "address": "0x3a622DB2db50f463dF562Dc5F341545A64C580fc",
  "abi": [
    {
      "inputs": [],
      "stateMutability": "nonpayable",
      "type": "constructor"
    },
    {
      "inputs": [
        {
          "internalType": "bytes32",
          "name": "",
          "type": "bytes32"
        }
      ],
      "name": "Coins",
      "outputs": [
        {
          "internalType": "bytes32",
          "name": "ticker",
          "type": "bytes32"
        },
        {
          "internalType": "contract IERC20",
          "name": "token",
          "type": "address"
        }
      ],
      "stateMutability": "view",
      "type": "function"
    },
    {
      "inputs": [
        {
          "internalType": "uint256",
          "name": "_usdcAmount",
          "type": "uint256"
        },
        {
          "internalType": "uint256",
          "name": "_usdtAmount",
          "type": "uint256"
        },
        {
          "internalType": "uint256",
          "name": "_daiAmount",
          "type": "uint256"
        }
      ],
      "name": "depositStablecoins",
      "outputs": [
        {
          "internalType": "uint256",
          "name": "",
          "type": "uint256"
        }
      ],
      "stateMutability": "nonpayable",
      "type": "function"
    }
  ],
  "transactionHash": "0xb18f3188baa11f42a6dd7008e6bcb18bd5256e1c936bb968ef6e85730b9dd995",
  "args": [],
  "solcInputHash": "092a7769fc6ef1008ccca738452df0ea",
  "bytecode": "0x608060405234801561001057600080fd5b50604080518082018252637573646360e01b808252732791bca1f2de4661ed88a30c99a7a9449aa8417460208084019182526000928352600180825293517fba9dae59fd26a207dddfac5c488b0b296c014d0998b3de0b748702e2f4a8ceb75590517fba9dae59fd26a207dddfac5c488b0b296c014d0998b3de0b748702e2f4a8ceb880546001600160a01b039283166001600160a01b03199182161790915585518087018752631d5cd91d60e21b80825273c2132d05d31c914a87c6611c10748aeb04b58e8f82860190815290865286855290517f4c7c230e479d0efcb4289d42735462eb42b63c4c0768ff7955b513f7e10921c055517f4c7c230e479d0efcb4289d42735462eb42b63c4c0768ff7955b513f7e10921c1805491841691831691909117905585518087019096526264616960e81b808752738f3cf7ad23cd3cadbd9735aff958023239c6a0638785019081529085529490925293517f8381c33be0829de2f8429f3f2e7870db92965facbb6fc5279950edcd3cbef10c5591517f8381c33be0829de2f8429f3f2e7870db92965facbb6fc5279950edcd3cbef10d80549190941690831617909255815416738dff5e27ea6b7ac08ebfdf9eb090f32ee9a30fcf179055610bcc806101e96000396000f3fe608060405234801561001057600080fd5b50600436106100365760003560e01c8063b823154d1461003b578063cd44c37114610064575b600080fd5b61004e610049366004610896565b610085565b60405161005b9190610b5d565b60405180910390f35b610077610072366004610866565b610580565b60405161005b929190610951565b637573646360e01b600090815260016020527fba9dae59fd26a207dddfac5c488b0b296c014d0998b3de0b748702e2f4a8ceb8546040516370a0823160e01b815285916001600160a01b0316906370a08231906100e69030906004016108dd565b60206040518083038186803b1580156100fe57600080fd5b505afa158015610112573d6000803e3d6000fd5b505050506040513d601f19601f82011682018060405250810190610136919061087e565b101561015d5760405162461bcd60e51b815260040161015490610a86565b60405180910390fd5b631d5cd91d60e21b60005260016020527f4c7c230e479d0efcb4289d42735462eb42b63c4c0768ff7955b513f7e10921c1546040516370a0823160e01b815284916001600160a01b0316906370a08231906101bc9030906004016108dd565b60206040518083038186803b1580156101d457600080fd5b505afa1580156101e8573d6000803e3d6000fd5b505050506040513d601f19601f8201168201806040525081019061020c919061087e565b101561022a5760405162461bcd60e51b81526004016101549061099b565b6264616960e81b60005260016020527f8381c33be0829de2f8429f3f2e7870db92965facbb6fc5279950edcd3cbef10d546040516370a0823160e01b815283916001600160a01b0316906370a08231906102889030906004016108dd565b60206040518083038186803b1580156102a057600080fd5b505afa1580156102b4573d6000803e3d6000fd5b505050506040513d601f19601f820116820180604052508101906102d8919061087e565b10156102f65760405162461bcd60e51b815260040161015490610a18565b637573646360e01b60005260016020527fba9dae59fd26a207dddfac5c488b0b296c014d0998b3de0b748702e2f4a8ceb854610350906001600160a01b0316738dff5e27ea6b7ac08ebfdf9eb090f32ee9a30fcf866105a2565b631d5cd91d60e21b60005260016020527f4c7c230e479d0efcb4289d42735462eb42b63c4c0768ff7955b513f7e10921c1546103aa906001600160a01b0316738dff5e27ea6b7ac08ebfdf9eb090f32ee9a30fcf856105a2565b6264616960e81b60005260016020527f8381c33be0829de2f8429f3f2e7870db92965facbb6fc5279950edcd3cbef10d54610403906001600160a01b0316738dff5e27ea6b7ac08ebfdf9eb090f32ee9a30fcf846105a2565b6000805460405163e8eda9df60e01b81526001600160a01b039091169163e8eda9df9161044c91732791bca1f2de4661ed88a30c99a7a9449aa841749189913391600401610924565b600060405180830381600087803b15801561046657600080fd5b505af115801561047a573d6000803e3d6000fd5b50506000805460405163e8eda9df60e01b81526001600160a01b03909116935063e8eda9df92506104c79173c2132d05d31c914a87c6611c10748aeb04b58e8f9188913391600401610924565b600060405180830381600087803b1580156104e157600080fd5b505af11580156104f5573d6000803e3d6000fd5b50506000805460405163e8eda9df60e01b81526001600160a01b03909116935063e8eda9df925061054291738f3cf7ad23cd3cadbd9735aff958023239c6a0639187913391600401610924565b600060405180830381600087803b15801561055c57600080fd5b505af1158015610570573d6000803e3d6000fd5b50505050600190505b9392505050565b600160208190526000918252604090912080549101546001600160a01b031682565b80158061062a5750604051636eb1769f60e11b81526001600160a01b0384169063dd62ed3e906105d890309086906004016108f1565b60206040518083038186803b1580156105f057600080fd5b505afa158015610604573d6000803e3d6000fd5b505050506040513d601f19601f82011682018060405250810190610628919061087e565b155b6106465760405162461bcd60e51b815260040161015490610b07565b61069c8363095ea7b360e01b848460405160240161066592919061090b565b60408051601f198184030181529190526020810180516001600160e01b03166001600160e01b0319909316929092179091526106a1565b505050565b60006106f6826040518060400160405280602081526020017f5361666545524332303a206c6f772d6c6576656c2063616c6c206661696c6564815250856001600160a01b03166107309092919063ffffffff16565b80519091501561069c57808060200190518101906107149190610846565b61069c5760405162461bcd60e51b815260040161015490610abd565b606061073f8484600085610747565b949350505050565b6060824710156107695760405162461bcd60e51b8152600401610154906109d2565b61077285610807565b61078e5760405162461bcd60e51b815260040161015490610a4f565b600080866001600160a01b031685876040516107aa91906108c1565b60006040518083038185875af1925050503d80600081146107e7576040519150601f19603f3d011682016040523d82523d6000602084013e6107ec565b606091505b50915091506107fc82828661080d565b979650505050505050565b3b151590565b6060831561081c575081610579565b82511561082c5782518084602001fd5b8160405162461bcd60e51b81526004016101549190610968565b600060208284031215610857578081fd5b81518015158114610579578182fd5b600060208284031215610877578081fd5b5035919050565b60006020828403121561088f578081fd5b5051919050565b6000806000606084860312156108aa578182fd5b505081359360208301359350604090920135919050565b600082516108d3818460208701610b66565b9190910192915050565b6001600160a01b0391909116815260200190565b6001600160a01b0392831681529116602082015260400190565b6001600160a01b03929092168252602082015260400190565b6001600160a01b03948516815260208101939093529216604082015261ffff909116606082015260800190565b9182526001600160a01b0316602082015260400190565b6000602082528251806020840152610987816040850160208701610b66565b601f01601f19169190910160400192915050565b6020808252601f908201527f496e737566666963656e742062616c616e6365206f6620746865205553445400604082015260600190565b60208082526026908201527f416464726573733a20696e73756666696369656e742062616c616e636520666f6040820152651c8818d85b1b60d21b606082015260800190565b6020808252601e908201527f496e737566666963656e742062616c616e6365206f6620746865204441490000604082015260600190565b6020808252601d908201527f416464726573733a2063616c6c20746f206e6f6e2d636f6e7472616374000000604082015260600190565b6020808252601f908201527f496e737566666963656e742062616c616e6365206f6620746865205553444300604082015260600190565b6020808252602a908201527f5361666545524332303a204552433230206f7065726174696f6e20646964206e6040820152691bdd081cdd58d8d9595960b21b606082015260800190565b60208082526036908201527f5361666545524332303a20617070726f76652066726f6d206e6f6e2d7a65726f60408201527520746f206e6f6e2d7a65726f20616c6c6f77616e636560501b606082015260800190565b90815260200190565b60005b83811015610b81578181015183820152602001610b69565b83811115610b90576000848401525b5050505056fea2646970667358221220f6a8119ec6edc8c3170ecbbd34c820982b7d68abfceff134827e67581b55aa8264736f6c63430008000033",
  "devdoc": {
    "kind": "dev",
    "methods": {},
    "version": 1
  },
  "userdoc": {
    "kind": "user",
    "methods": {},
    "version": 1
  },
  "storageLayout": {
    "storage": [
      {
        "astId": 627,
        "contract": "contracts/Strategy.sol:Strategy",
        "label": "aaveProtocol",
        "offset": 0,
        "slot": "0",
        "type": "t_contract(IAaveLendingPool)820"
      },
      {
        "astId": 642,
        "contract": "contracts/Strategy.sol:Strategy",
        "label": "Coins",
        "offset": 0,
        "slot": "1",
        "type": "t_mapping(t_bytes32,t_struct(Token)637_storage)"
      }
    ],
    "types": {
      "t_bytes32": {
        "encoding": "inplace",
        "label": "bytes32",
        "numberOfBytes": "32"
      },
      "t_contract(IAaveLendingPool)820": {
        "encoding": "inplace",
        "label": "contract IAaveLendingPool",
        "numberOfBytes": "20"
      },
      "t_contract(IERC20)77": {
        "encoding": "inplace",
        "label": "contract IERC20",
        "numberOfBytes": "20"
      },
      "t_mapping(t_bytes32,t_struct(Token)637_storage)": {
        "encoding": "mapping",
        "key": "t_bytes32",
        "label": "mapping(bytes32 => struct Strategy.Token)",
        "numberOfBytes": "32",
        "value": "t_struct(Token)637_storage"
      },
      "t_struct(Token)637_storage": {
        "encoding": "inplace",
        "label": "struct Strategy.Token",
        "members": [
          {
            "astId": 633,
            "contract": "contracts/Strategy.sol:Strategy",
            "label": "ticker",
            "offset": 0,
            "slot": "0",
            "type": "t_bytes32"
          },
          {
            "astId": 636,
            "contract": "contracts/Strategy.sol:Strategy",
            "label": "token",
            "offset": 0,
            "slot": "1",
            "type": "t_contract(IERC20)77"
          }
        ],
        "numberOfBytes": "64"
      }
    }
  }
}